:100000005AC418951895ABC2189532C3189576C284
:1000100089C21895189518951895189518951895DA
:100020004DC0189518951895189518951895189508
:100030008AC318950F931F930BEC17E001501040E3
:10004000E9F7000000001F910F910F931F930CEC34
:1000500017E001501040E9F70000000000001F9178
:100060000F910150104089F7000008952F9384D01C
:10007000ACD22F910895219A239A259A399A229ADF
:10008000249A389A3A9A03E004BD0AE005BD07E2D3
:1000900007BD01E000936E0000916E0001600093C7
:1000A0006E000895EF93FF9300E018E0E0E0F1E0C8
:1000B00001931A95E9F7FF91EF9108950F931F931C
:1000C0000FB70F93109108011395109308011F3F6C
:1000D000E9F100910001101708F0299808F4299A15
:1000E00000910101101708F02B9808F42B9A009149
:1000F0000201101708F02D9808F42D9A00910301C1
:10010000101708F0419808F4419A00910401101763
:1001100008F02A9808F42A9A00910501101708F0AF
:100120002C9808F42C9A00910601101708F04098BA
:1001300008F4409A00910701101708F0429808F45B
:10014000429A0F910FBF1F910F9118958FDFF9CF32
:1001500000910B01000F2BF00DF0039500930B01A4
:100160000895DDF3FBCF289A5F9A5E9A5D9A2F9AE5
:100170002E9A5C9A5B9A089500910C01189911C00F
:100180000430B9F0039500930C01043091F4B1D21E
:10019000173031F00091000100950093000151608B
:1001A00008C0003031F0043001F400E000930C018D
:1001B00000C000910D014F9911C00430B9F00395B2
:1001C00000930D01043091F494D2173031F0009176
:1001D0000101009500930101526008C0003031F028
:1001E000043001F400E000930D0100C000910E0105
:1001F0004E9911C00430B9F0039500930E010430FC
:1002000091F477D2173031F00091020100950093FC
:100210000201546008C0003031F0043001F400E005
:1002200000930E0100C000910F014D9911C00430E0
:10023000B9F0039500930F01043091F45AD21730AE
:1002400031F000910301009500930301586008C04C
:10025000003031F0043001F400E000930F0100C0E1
:10026000009110011F9911C00430B9F0039500935B
:100270001001043091F43DD2173031F000910401A7
:10028000009500930401506108C0003031F0043043
:1002900001F400E00093100100C0009111011E99CB
:1002A00011C00430B9F0039500931101043091F4AA
:1002B00020D2173031F0009105010095009305011F
:1002C000506208C0003031F0043001F400E00093C7
:1002D000110100C0009112014C9911C00430B9F015
:1002E000039500931201043091F403D2173031F0DA
:1002F00000910601009500930601506408C000308B
:1003000031F0043001F400E00093120100C00091CC
:1003100013014B9911C00430B9F0039500931301F8
:10032000043091F4E6D1173031F0009107010095C7
:1003300000930701506808C0003031F0043001F428
:1003400000E00093130100C00895089508950895F2
:100350000F930F91089509E30093590101E0009371
:100360005A0109E300935B0101E000935C010895E9
:1003700005E10093360101E00093370100E00093AE
:1003800038010895E8DFF4DF0895E2DF01D0089531
:10039000EF93FF93E0913601F091370101930091C3
:1003A0003801039500933801003121F0E53311E065
:1003B000F10740F000E00083C9DFE5E1F1E000E093
:1003C00000933801E0933601F0933701FF91EF91EC
:1003D000089500935F010FB70F93EF93FF93F89485
:1003E000E0915901F0915A013196E93511E0F10798
:1003F00010F0E9E3F1E010915B01E11710915C016D
:10040000F10709F4A4DF00915F010083E093590133
:10041000F0935A0125D0FF91EF910F910FBF0091FA
:100420005F010895EF93FF93E0915B01F0915C0110
:1004300010915901E11B10915A01F10BE03210E0CB
:10044000F10730F000E00E1BE02F00E00F0BF02F63
:100450000E2F00E00F1708F40FEFFF91EF910895B2
:10046000EF93FF93E0915B01F0915C0110915901D2
:10047000E11710915A01F10789F03196E93511E041
:10048000F10710F0E9E3F1E000810093C600E0938A
:100490005B01F0935C01FF91EF91089556DFFF91AE
:1004A000EF91089500E00093B0000093B10006E0E2
:1004B000009370000CE707BD01E00093680000E1C5
:1004C00000936B00239A2B9A2C9A4BE02BE07894A4
:1004D0000CD00D39E9F3013618F0093708F4005251
:1004E0004A30F0F3502F40E0F3CF2B3011F40DE9F8
:1004F00008952A30F0F3032F2BE008950F930FB7E0
:100500000F934A3058F4403011F42B9806C050FB3A
:1005100005B103F905B90894579543950F910FBF9D
:100520000F9118950F930FB70F932A30A0F4203036
:1005300011F41C990AC008E0021728F0369503B19F
:1005400004FB37F907C01C9902C03EE929E000E02E
:100550000CBB0DBB23950F910FBF0F9118950F93F7
:100560000FB70F9300E00093680006B5025C0C37EC
:1005700008F00C5708BD20E00F910FBF0F911895A0
:10058000089584D0B6D0173089F400E000930001BC
:100590000093010100930201009303010093040101
:1005A0000093050100930601009307010895089543
:1005B000EF93FF93E0E6F1E021E000E001932A955C
:1005C000E9F7FF91EF9108950895009160010150BE
:1005D00020F00093600109F4D4DF08955A9A599AE3
:1005E000589A04E00093680007E000936D000895B6
:1005F00000916701013009F008950091680107FD3D
:1006000016C0009168010770AF93BF93A0E0B1E0FE
:10061000A00F10E0B11F00916901003019F400E053
:100620000C9302C00FEF0C93BF91AF91089500910E
:100630006901003009F4089500916901023091F4D4
:1006400000E0009300010093010100930201009378
:100650000301009304010093050100930601009338
:100660000701089500916901013009F40895089582
:100670000F931F930FB70F930EE100936001009348
:1006800061010F910FBF1F910F9118951FEF09B1D5
:1006900002FB11F909B101FB12F909B100FB13F9D1
:1006A00010951062103209F410E01093BA0008950A
:1006B0000F931FEF09B102FB14F909B101FB15F902
:1006C00009B100FB16F910950F91102B10936401DE
:1006D000AF93BF93A0E0B1E0A00F10E0B11F0C9169
:1006E000BF91AF9110E0003009F01FEF109365014A
:1006F000089510E009B102FB10F909B101FB11F9ED
:1007000009B100FB12F908959BD030FD04C000E848
:100710000093BB00A5D030FD04C001E00093BB00F6
:100720009FD030FD05C0009164010093BB0098D0BC
:1007300030FD05C0009165010093BB0091D0A2D0AF
:1007400030FDE2CF08950F931F930FB70F934091A1
:10075000B900487F403691F405EC0093BC00AF939C
:10076000BF93A7E6B1E000E013E00D931A95E9F717
:10077000BF91AF9100E0009366014EC04038E9F4AC
:10078000AF93BF93A7E6B1E010916601A10F10E00F
:10079000B11F0091BB000C93BF91AF910091660116
:1007A000039500936601023020F005E80093BC0039
:1007B00033C005EC0093BC002FC0483899F4AF93C8
:1007C000BF93A7E6B1E010916601A10F10E0B11F41
:1007D0000091BB000C93BF91AF910ADF05EC009331
:1007E000BC001AC0403A31F405EC0093BC00316003
:1007F00048E312C0403031F405ED0093BC00316095
:1008000048E30AC0483329F405EC0093BC0031608A
:1008100048E304E00093BC000F910FBF1F910F91BC
:100820001895459A449A00E00093B9000CE00093B3
:10083000B80002E20093BA0005E40093BC000895FA
:1008400030FD0895F89448EF05EE0093BC007894CD
:1008500030FD05C0483019F0403109F0F9CF089556
:10086000F89448EF05EC0093BC00789430FD09C083
:10087000483139F0403229F0483219F0403309F05C
:10088000F5CF089530FD089503E110E001501040C8
:10089000E9F7000000000000F89448EF05ED009330
:1008A000BC00789403E110E001501040E9F700002B
:1008B0000000000008950FEF0DBF02E00EBF009191
:1008C00060000861009360000EE000936000A8954E
:1008D00003E610E0AFDBE0E0F1E000E00193E030A0
:1008E00013E0F107D9F7EEE1F0E0EA950083E9F7CC
:1008F0003327C1DB38DC46DD67DE70DE92DF7894BB
:100900000EE1009360010093610107EE13E00150D6
:100910001040E9F700000000000000E00093000133
:10092000009301010093020100930301009304016D
:1009300000930501009306010093070150FF04C0D6
:1009400000E0B6DEE1DE5E7F000051FF04C001E0A2
:10095000AFDEDADE5D7F000052FF04C002E0A8DEF9
:10096000D3DE5B7F000053FF04C003E0A1DECCDEDA
:10097000577F000054FF04C004E09ADEC5DE5F7EAE
:10098000000055FF04C005E093DEBEDE5F7D000081
:1009900056FF04C006E08CDEB7DE5F7B000057FF29
:1009A00004C007E085DEB0DE5F770000A895C6CF03
:0209B000FFCF77
:00000001FF
