:100000000C94E81A18950000189500001895000047
:1000100018950000189500000C94CF021895000068
:10002000189500001895000018950000189500001C
:10003000189500001895000018950000189500000C
:100040000C947000189500000C945B010C94B601A0
:10005000189500000C94E00C18950000189500000D
:100060000C948A02189500000F931F930BE91FE070
:1000700001501040E9F7000000001F910F910F930D
:100080001F930CE91FE001501040E9F70000000049
:1000900000001F910F910150104089F70000089552
:1000A0002F9356D0CCD12F91089503E004BD0AE0E0
:1000B00005BD0EE407BD01E000936E0000916E00E7
:1000C000016000936E000895EF93FF9300E010E04D
:1000D000E0E0F1E001931A95E9F7FF91EF910895BF
:1000E0000F931F930FB70F93109100011395109367
:1000F00000011F3F49F01370103009F461D00F91D7
:100100000FBF1F910F911895CBDFF9CF009103011D
:10011000000F2BF00DF00395009303010895DDF31C
:10012000FBCF00910601063428F4009106010395E7
:100130000093060100910601063439F4009106018E
:100140000395009306010E941F095D9A5C9A089529
:10015000009104014D990BC00430B9F00395009350
:100160000401043099F400E0009306010FC0003050
:1001700069F0043031F400910601063410F40E9455
:100180002E0900E00093040101C0CBDF00910501BE
:100190004C9908C0043079F00395009305010430B0
:1001A00059F40AC0003041F0043009F429CF00E0CE
:1001B0000093050101C0C9DF08955E9A5F9A089512
:1001C000009107014E9913C0023021F1039500936D
:1001D00007010230F9F44F9904C00FEF00930A01B0
:1001E00003C001E000930A010E94620913C00030BD
:1001F00089F0023059F44F9B04C00FEF00930A01BD
:1002000003C001E000930A010E94620900E000932C
:10021000070100C0009108014F9908C0023071F039
:10022000039500930801023049F408C0003031F012
:10023000023001F400E00093080100C00895089521
:100240002F93CF93DF93DF91CF912F9108957894DF
:1002500010911205E11710911305F107C9F3F894F5
:10026000089508950091C00005FFFCCF1093C600CB
:10027000089500E00093C50003E00093C40006E089
:100280000093C20002E00093C00008E90093C1009F
:100290000DE000930E0301E000930F0300E10093D3
:1002A000100503E00093110500E10093120503E03F
:1002B0000093130508950F931F930FB70F930091A9
:1002C000C600CFDF05D00F910FBF1F910F9118957A
:1002D000EF93FF93E0910E03F0910F030193013030
:1002E00019F4EEE0F1E009C0043021F0ED3013E044
:1002F000F10718F0A5DFEDE0F1E0E0930E03F093D5
:100300000F03FF91EF910895009314050FB70F931A
:10031000EF93FF93F894E0911005F0911105319659
:10032000E03115E0F10710F0E0E1F3E01091120583
:10033000E11710911305F10709F489DF0091140505
:100340000083E0931005F09311050091C10005FDB5
:1003500006C00091C10000620093C10011D0FF915E
:10036000EF910F910FBF0091140508950F931F9304
:100370000FB70F9305D00F910FBF1F910F911895D5
:10038000EF93FF93E0911205F09113051091100582
:10039000E11710911105F10789F03196E03115E070
:1003A000F10710F0E0E1F3E000810093C600E09374
:1003B0001205F0931305FF91EF9108950091C1008C
:1003C0000F7D0093C1003BDFFF91EF91089500E0A6
:1003D00000932B0531600895346000911905009356
:1003E00015050895009128050B3041F0009128056E
:1003F000073021F000912805043639F400912A05D0
:100400001FEF012700932A05316000911B0500931F
:100410001705089500E000934D0704E600932805B2
:1004200031600895EF93FF93E5E1F5E024E000E00B
:1004300001932A95E9F7FF91EF91089508950091AE
:100440001505015020F00093150509F4C5DF009152
:100450001605015020F00093160509F4B8DF00914D
:100460001705015020F00093170509F4BBDF009138
:100470001805015020F00093180509F4CBDF08950A
:10048000459A449A00E00093B90000E20093B80056
:1004900000E40093BA0005E40093BC00089531FD28
:1004A0000895F89448EF05EE0093BC00789431FD70
:1004B00005C0483019F0403109F0F9CF0895F8949B
:1004C00048EF05E80093BC00789431FD09C048313D
:1004D00039F0403229F0483219F0403309F0F5CFB5
:1004E000089531FD089507E210E001501040E9F74A
:1004F000000000000000F89448EF05ED0093BC00F8
:10050000789407E210E001501040E9F70000000085
:10051000000008950F931F930FB70F934091B900F8
:10052000487F403621F405E80093BC0033C04838CA
:10053000A1F40091BB0062D6EED5202A2072656D31
:100540006F746520737769746368000005EC00932D
:10055000BC00326048E331601DC0403A39F405EC1C
:100560000093BC00326048E3316014C0403039F47D
:1005700005ED0093BC00326048E331600BC04833A6
:1005800031F405EC0093BC00326048E3316004E0D4
:100590000093BC000F910FBF1F910F9118950F93FF
:1005A0001F930FB70F934091B900487F4093C60047
:1005B000A895FECF0F910FBF1F910F9118951F9314
:1005C00010911E0511951058FCD300E0E7D31A9541
:1005D000E1F787DF1F91089500931E0510931F0513
:1005E00000E2C6D300E0C4D301E2C2D300911E05ED
:1005F000BFD30FE7BDD302E2BBD300911F05B8D331
:1006000007E0B6D30895EF93FF9300E010E0E4DF36
:10061000E0E0F4E0D6D300E0C1D3E150F040D9F7F8
:1006200060DFFF91EF9108952F93003138F000388B
:1006300008F000E200512ED02F91089510E0013013
:1006400071F00A30F1F00D3071F002500894111F72
:10065000003011F00A95FBCF00911D051027109373
:100660001D052F91089500911F050395083008F08E
:1006700000E000931F0500911E0510911F05ACDFDF
:10068000F0CF00E000931E0500911E0510911F059C
:10069000A3DFE7CFEF93FF9310E0000FE02FF0E030
:1006A000000F111FE00FF11FE053F54F8AD3109197
:1006B0001D0516FF06C000911F050F9300911E0532
:1006C0000F9326E0059114FF04C0253069F0233014
:1006D00059F044D016FF02C00F7057D017FF03C067
:1006E0000F935CD30F915AD32A9561F761D0F9DE4D
:1006F00010911D0516FF2FC036970F9100931E0510
:100700000F910F93039500931F051F9300911E05F2
:1007100010911F0561DF1F9154D326E0059114FF4E
:1007200004C0253061F0233051F018D002950F70CD
:100730002CD017FF03C00F9331D30F912FD32A95DD
:1007400069F736D0CEDE0F9100931F0500911E058C
:1007500010911F0541DFFF91EF91089515FF07C02C
:10076000253029F4329724913296022B25E013FF8D
:1007700007C006FB000F08F4006808F00F7706F9C1
:1007800010FD006811FD00950895EF93FF93E0EAD6
:10079000F7E0E00F00E0F01F0491FF91EF91089562
:1007A00000030C0F30333C3FC0C3CCCFF0F3FCFF51
:1007B00012FF07C000E017FF03C00F93EFD20F91A5
:1007C000EDD2089501E2D4D200911E05D1D200915C
:1007D0001E05095ECDD202E2CBD200911F05C8D220
:1007E00007E0C6D208950F93EDDF1F91EF93FF93BB
:1007F000E12FF0E0EE0FFF1FEE0FFF1FEE0FFF1FC8
:1008000000E01695079516950795E00FF11FEA5D34
:10081000F74F08E40F930591C1D20F910A95D1F7D4
:10082000FF91EF9108950080601008040402020116
:1008300001010101010202040408106080007E81B0
:10084000000000000000007E424242427E000000A4
:1008500000000000817E000106081020204040803A
:1008600080808080804040202010080601000080A9
:100870006010080404020201010101010182828466
:10088000848890E080007E814020100808040402E3
:10089000020181412110080404020202837E00014A
:1008A0000608102020404080F08E8180804040204B
:1008B00020100806010000806010080404020201F4
:1008C00001010101010202040488506080007E8160
:1008D00000804020201010884844242492924A2905
:1008E00025141209857E000107081028244241E0E2
:1008F00098848281804040202010080601000080FA
:1009000060100804040202018141010181625284E5
:100910008408106080007E81000020C04080000FAD
:1009200030C10608130C000000010102837E0001A3
:100930000608142320404384828180808040402028
:100940002010080601000080601008040402020163
:1009500001010101010202040408106080007E818F
:100960000000000000000000007E00000000000009
:1009700000000000817E0001060810202040408019
:100980008080808080404020201008060100008088
:1009900060100804040202010101010101020204C5
:1009A0000408106080007E8100000000000000004C
:1009B0007E00007E0000000000000000817E00013B
:1009C00006081020204040808080808080404020A9
:1009D00020100806010000806010080404020231A3
:1009E00071712101010202040408106080007E81FF
:1009F000000000000000380EFF7F64C48201000088
:100A000000000000817E000106081020204046837F
:100A100081808080874440202010080601000080EB
:100A20006010084444424241414109F93162C284A4
:100A30000408106080007E810000000000008292A7
:100A40009292929392909FD1E3BE1C00817E00010E
:100A500006081024244444848484848484444427E1
:100A600024100806010078940EEA82D105ED80D1A9
:100A700000EF7ED108EA7CD10FE37AD103ED78D183
:100A800000E076D100E474D10DE872D104E170D1B8
:100A900000E26ED100E06CD101EA6AD108EC68D1C5
:100AA0000AED66D102E164D101E862D10FEC60D1B8
:100AB00009ED5ED101EF5CD10BED5AD100E358D1C5
:100AC00004EA56D106EA54D10FEA52D19CDD0895CA
:100AD0000000000000000000000000000000000016
:100AE0000000000000000000000000000000000006
:100AF00000000000000000000000000000000000F6
:100B000000000000000000000000000000000000E5
:100B100000000000000000000000000000000000D5
:100B200000000000000000000000000000000000C5
:100B300000000000000000005F0000000007000748
:100B40000000147F147F1400242A7F2A120023132C
:100B50000864620036495522500000050300000079
:100B6000001C224100000041221C000014083E0825
:100B7000140008083E080800005030000000080873
:100B8000080808000060600000002010080402004F
:100B90003E5149453E0000427F40000042615149BC
:100BA00046002141454B31001814127F10002745A3
:100BB000454539003C4A49493000017109050300A7
:100BC000364949493600064949291E000036360093
:100BD00000000056360000000814224100001414E2
:100BE00014141400004122140800020151090600E7
:100BF000324979413E007E1111117E007F494949F9
:100C000036003E41414122007F4141221C007F4984
:100C1000494941007F09090901003E4149497A00DB
:100C20007F0808087F0000417F4100002040413FCD
:100C300001007F08142241007F40404040007F02B5
:100C40000C027F007F0408107F003E4141413E00BE
:100C50007F09090906003E4151215E007F091929DB
:100C6000460046494949310001017F0101003F40EA
:100C700040403F001F2040201F003F4038403F00C1
:100C800063140814630007087008070061514945A0
:100C90004300007F41410000020408102000004191
:100CA000417F0000001F1054381000C0C0C0C000B9
:100CB0000001020400002054545478007F4844444A
:100CC0003800384444442000384444487F003854B5
:100CD00054541800087E090102000C5252523E0082
:100CE0007F080404780000447D4000002040443D1B
:100CF00000007F102844000000417F4000007C0479
:100D0000180478007C08040478003844444438000F
:100D10007C1414140800081414187C007C080404C3
:100D20000800485454542000043F444020003C40F4
:100D300040207C001C2040201C003C4030403C00F7
:100D40004428102844000C5050503C004464544C3B
:100D5000440000083641000000007F000000004110
:100D6000360800001008081008000000000000000D
:100D70000F9395DB31FD04C008E70093BB009FDBB8
:100D800031FD04C000E00093BB0099DB0F9131FD01
:100D900003C00093BB0093DBA4DB089531FD03C0C7
:100DA0000093BB008CDB00911E050395003830F0EA
:100DB00000911F05039500931F0500E000931E0599
:100DC00008956DDB31FD04C008E70093BB0077DBBD
:100DD00031FD04C000E40093BB0071DB0895EE0F09
:100DE000FF1F0591003009F408951EDCFACF089525
:100DF000E0932005F0932105FF91EF91EE0FFF1F87
:100E00000591003011F010DCFBCF3196F695E79597
:100E1000EF93FF93E0912005F09121050895019152
:100E2000003009F4089500DCFACF089500E3009340
:100E3000220510E127E222D018EE23E01FD014E6AD
:100E400020E01CD01AE020E04BD00EE2EDDB00E306
:100E50000E0FEADB089500E30093220510E127E27C
:100E60000DD018EE23E00AD014E620E007D01AE0F7
:100E700020E036D000E30E0FD7DB0895E117F2072C
:100E800020F0E11BF20B0395F9CF08950F2F029587
:100E90003BD00F2F39D00E2F029536D00E2F34D0E5
:100EA000089500E30093220510E127E219D018EE1F
:100EB00023E016D014E620E013D01AE020E010D092
:100EC00000E30E0FB1DB0895EE0FFF1F08F000E303
:100ED00008F401E31F93A8DB1F911A95A9F7089561
:100EE00000E3E117F20720F0E11BF20B0395F9CFC5
:100EF000003331F410912205103321F400E302C0D5
:100F00000093220591DB08950F700A3008F4005D0C
:100F1000003108F4095C88DB0895EE0FFF1F05918E
:100F2000003009F40895F0D9FACF0895E09323052D
:100F3000F0932405FF91EF91EE0FFF1F0591003014
:100F400011F0E2D9FBCF3196F695E795EF93FF9339
:100F5000E0912305F091240508950191003009F4F2
:100F60000895D2D9FACF08950E2F029536D00E2FBC
:100F700034D0089500E30093250510E127E219D04D
:100F800018EE23E016D014E620E013D01AE020E09B
:100F900010D000E30E0FB8D90895EE0FFF1F08F030
:100FA00000E308F401E31F93AFD91F911A95A9F745
:100FB000089500E3E117F20720F0E11BF20B03951F
:100FC000F9CF003331F410912505103321F4089541
:100FD00002C00093250598D908950F700A3008F4CF
:100FE000005D003108F4095C8FD90895CF93DF9339
:100FF000AF93BF9300912605003019F0A5E0B0E053
:1010000002C0A5E0B0E000912605013011F000001B
:1010100002C0A5E2B1E000912605023011F0000007
:1010200002C0A5E4B2E0C8E4D5E0A1BDB2BDF89A23
:1010300000B50F3F21F4C2D30FEF088BD6D2A1BD6C
:10104000B2BDF89A00B5088308810F3F69F009E046
:101050000F93A1BDB2BD1196F89A00B509930F91F7
:101060000A95B1F72796EBCFBF91AF91DF91CF9162
:101070000895CF93DF93AF93BF930091260500307F
:1010800019F0A5E0B0E002C0A5E0B0E000912605AF
:10109000013011F0000002C0A5E2B1E00091260588
:1010A000023011F0000002C0A5E4B2E0C8E4D5E0CF
:1010B000A1BDB2BDF89A00B50F3F21F47FD30FEF69
:1010C000088B93D2A1BDB2BDF89A00B50883088100
:1010D0000F3F81F009E00F93A1BDB2BD1196F89AC0
:1010E00000B509930F910A95B1F700E009930993B0
:1010F0002596E8CFBF91AF91DF91CF91089500E0A1
:1011000010E06ADAEF93FF93EBE2F5E088DEFF91FF
:10111000EF9155DA0895E0934605F0934705FF9166
:10112000EF91AF93BF93ABE2B5E0EE0FFF1F0591D8
:10113000003011F00D93FBCF00E00C933196F69543
:10114000E795BF91AF91EF93FF93E0914605F09142
:10115000470508EC0093160500931A0531600895C1
:10116000CF93DF93C8E3D5E0609608810F3FF9F095
:1011700008810130C9F709851A850117A9F33D7F58
:101180008ED936D031FD03C00093BB0098D900E85A
:101190000A87483119F409850A874AD031FD03C00E
:1011A0000093BB008CD99DD931FDE9CFDDCFDF9114
:1011B000CF91089507E0009349073D7F70D90091D2
:1011C0004907000F006431FD03C00093BB0077D9CD
:1011D00031FD04C001E80093BB0071D982D931FD13
:1011E000ECCF0091490701500093490731F708956A
:1011F000098102950770000F0064089503FB0777CB
:10120000102FCF93DF93C8E3D5E0609608810F3F9E
:1012100061F009810117C9F726F000E009870A8704
:10122000F4CF0FEF09870A87F0CFDF91CF910895B0
:1012300019810985003009F01860012F0895009187
:101240002805013009F4D1D100912805063029F094
:1012500006E0009328053160386008950091280564
:10126000063011F40C944215033011F40C94B813A9
:10127000043011F40C94B813023011F40C94901A49
:10128000013011F40C94FA160A3011F40C9478170A
:10129000043611F40C940E19063611F40C945119FD
:1012A000003009F46EC0073009F408C4093011F4A5
:1012B0000C9461110B3011F40C949212083009F463
:1012C000A5C4089500912805033011F40C949113DE
:1012D000043011F40C949113063011F40C94281579
:1012E000023011F40C94691A013011F40C94D316E5
:1012F0000A3011F40C945E17043611F40C9464183F
:10130000063611F40C944019093009F4F8C60B3074
:1013100011F40C94EB11083009F450C408950091B5
:101320002805033011F40C946B13043011F40C9461
:101330006B13003071F1063011F40C942B14023051
:1013400011F40C945619013011F40C9444160A301F
:1013500011F40C940217043611F40C94DE170636BF
:1013600011F40C942F19073009F44DC3093009F416
:10137000E0C60B3011F40C947312083009F43EC42B
:10138000089500E000934A0706E0009328053160C5
:101390000895B5DE2DDD202020202020736F692DDB
:1013A0007465636801000BD923DD0820202020200C
:1013B0004D554C5449535749544348202020202030
:1013C000010000E014E008D9FAD8F9D811DD2A208C
:1013D000686F6C6420656E636F6465720100EFD89E
:1013E00007DD2020666F7220746865206D696E6568
:1013F000206D656E75010000E2D8089509850F3FE4
:1014000011F0000002C0F4DC030009851A85011701
:1014100019F0EEDC2D0002C0EBDC5B00098100302E
:1014200079F4E6DC2E2E2E0009851A85011721F0AD
:10143000DFDC2D01200003C0DBDC5D01200008950E
:1014400000770295005DF0D8D3DC2E00098107708B
:101450000F5CEAD809851A85011721F0C9DC2D0136
:10146000200003C0C5DC5D01200008950A81003022
:1014700011F00EE501C00FE5D7D8BADC012000005D
:10148000089500E00B811C81012B1D81012B003090
:1014900041F0EF93FF93EB81F0E0DDDCFF91EF9102
:1014A0000895A6DC2D2000000895A2DC0300EF9330
:1014B000FF93EC81FD81CFDCFF91EF9199DC3A0045
:1014C000EF93FF93EB81F0E0C6DCFF91EF9190DCAE
:1014D00001200000089500E00B811C81012B1D817B
:1014E000012B003041F0EF93FF93EC81FD81B3DCE1
:1014F000FF91EF9108957CDC202D0000089500E01D
:101500000E811F81012B1885012B003041F0EF93D4
:10151000FF93EE81F0E09FDCFF91EF91089568DC8E
:101520002D200000089500E00E811F81012B1885F9
:10153000012B003041F0EF93FF93EF81F8858BDCB6
:10154000FF91EF91089554DC202D0000089550DCA8
:101550000300EF93FF93EF81F8857DDCFF91EF911E
:1015600047DC3A00EF93FF93EE81F0E074DCFF91EB
:10157000EF913EDC01200000089514E011BD10E061
:1015800012BDF89A00B500932605033070F000E014
:101590000093260514E011BD10E012BD00BDFA9ABB
:1015A000F99AF999FECF0E94E91563DD13E011BDA8
:1015B00010E012BDF89A00B50093270500E00093F3
:1015C000280500912705003019F403E00093280551
:1015D00000912705013019F408E0009328050091D7
:1015E00028050093280531600895CF93DF93AF93CA
:1015F000BF9300912605003019F0A5E0B0E002C0CD
:10160000A5E0B0E000912605013011F0000002C015
:10161000A5E2B1E000912605023011F0000002C001
:10162000A5E4B2E0C8E4D5E00881A1BDB2BD00BD2B
:10163000FA9AF99AF999FECF08810F3F81F009E0F3
:101640000F930991A1BDB2BD119600BDFA9AF99A06
:10165000F999FECF0F910A9599F72796E5CFBF919B
:10166000AF91DF91CF91089500914F0703950093BB
:101670004F0710E2023009F41EE306300895CF93BD
:10168000DF93C8E4D5E000E00093480708810F3FEE
:1016900069F00881013041F40981003029F000919E
:1016A00048070395009348076096F0CFDF91CF91EC
:1016B0000895CF93DF93C8E4D5E000E00093480796
:1016C00008810F3F51F00881013029F4009148074B
:1016D0000395009348076096F3CFDF91CF9108956B
:1016E000CF93DF93C8E4D5E000E00093480708817A
:1016F0000F3F51F00881013029F40091480703950C
:10170000009348076096F3CFDF91CF910895C8E426
:10171000D5E000914B070093480708810F3F71F017
:101720000881013051F400914807003039F00091F0
:1017300048070A95009348076096EFCF0895CF9326
:10174000DF93C8E4D5E000E00093480708810F3F2D
:1017500039F0609600914807039500934807F6CF4B
:10176000DF91CF910895CF93DF93C8E4D5E000E2F5
:101770000093480708810F3F39F0609600914807B1
:101780000A9500934807F6CFDF91CF910895CF9344
:10179000DF93C8E3D5E0609608810F3F61F00881D0
:1017A0000030C9F7CF93DF93088909930F3FE1F722
:1017B000DF91CF91F1CFDF91CF91089501E00883C0
:1017C00000E1098300E00A8301E00B8300E00C8361
:1017D0000D8301E00E8300E00F8308870895AF9327
:1017E000BF936096DE0108810F3F11F06096FBCF3A
:1017F0002196C150D0400881088BCA17DB07C9F772
:10180000BF91AF910895AF93BF9308890F3F89F0BF
:10181000DE015096088118891883088BCF5FDF4F4F
:10182000CA17DB07B9F7ED0100914B070395009349
:101830004B07BF91AF910895AF93BF93C83415E0A4
:10184000D10789F0DE016097088118891883088B19
:10185000CF5FDF4FCA17DB07B9F7ED0100914B07E8
:101860000A9500934B07BF91AF910895CF93DF93F3
:10187000C8E3D5E0609608810F3F31F00881013060
:10188000C9F700E80A87F6CFDF91CF91089500915C
:101890002805083049F000912805033031F0009107
:1018A0002805043011F0089531600091550701308A
:1018B00009F408953160CF93DF93AF93BF93C8E3EA
:1018C000D5E0609608810F3FD9F108810130C9F752
:1018D0000981003009F455C00B81AC81BD81A03075
:1018E00010E0B10711F4003059F0003011F00A9502
:1018F00003C00BE3A150B0400B83AC83BD8319C080
:101900000FEF09870E81AF81B885A03010E0B107D5
:1019100011F4003059F0003011F00A9503C00BE3C8
:10192000A150B0400E83AF83B88703C000E00987A1
:10193000C8CF08890F3F01F10A890130E9F4C1CF0E
:1019400000912805043069F051DBE5DB202A207383
:1019500074617274206E6577206379636C65000032
:10196000AECFD9DB202A20656E64206379636C6575
:10197000202D2073746F7000BF91AF91DF91CF91D4
:1019800008950B81AC81BD81A03010E0B10719F43E
:10199000003009F496CF003011F00A9503C00BE334
:1019A000A150B0400B83AC83BD83C3CF00E0009354
:1019B0007B0000E600937C000FEE00937A00089510
:1019C0000F931F930FB70F93EF93FF9300917C003A
:1019D000102F015008F407E0139513FD10E6109343
:1019E0007C00EAE5F7E00770E00F10E0F11F0091DE
:1019F000790012E3019F1082FF91EF910F910FBFC9
:101A00001F910F9118957BDBF3D9494E50555453D4
:101A1000205354415455530100000E94DF020E949C
:101A2000DF02E6D9496E2D31203D20010000EF9301
:101A3000FF93E0915A07F0E0F9D9FF91EF91D8D9DF
:101A4000560100000E94DF02D3D9496E2D32203D9D
:101A500020010000EF93FF93E0915B07F0E0E6D9EF
:101A6000FF91EF91C5D9560100000E94DF02C0D955
:101A7000496E2D33203D20010000EF93FF93E0914C
:101A80005C07F0E0D3D9FF91EF91B2D95601000085
:101A90000E94DF02ADD9496E2D34203D20010000A7
:101AA000EF93FF93E0915D07F0E0C0D9FF91EF91D4
:101AB0009FD9560100000E94DF02089506E00093BE
:101AC00028053160089500912805083009F008952F
:101AD00000E00093550715E611BD13E012BDF89A1A
:101AE00000B50093560716E611BD13E012BDF89A33
:101AF00000B50093570717E611BD13E012BDF89A21
:101B000000B500935807C8D2003051F00091260567
:101B1000003009F4089500E000932605AADA08953C
:101B200018E611BD13E012BDF89A00B500935607F0
:101B300019E611BD13E012BDF89A00B500935707DE
:101B40001AE611BD13E012BDF89A00B500935807CC
:101B5000A3D2003051F000912605013009F4089518
:101B600001E00093260585DA08951BE611BD13E018
:101B700012BDF89A00B5009356071CE611BD13E09C
:101B800012BDF89A00B5009357071DE611BD13E08A
:101B900012BDF89A00B5009358077ED2003051F07C
:101BA00000912605023009F4089502E0009326050D
:101BB00060DA089501E000935507089500915407F5
:101BC00000FF02C0AED5089500910A01013059F01E
:101BD00000915107073028F40091510703950093B5
:101BE00051073160089500915107013028F00091AC
:101BF00051070A95009351073160089500915407E9
:101C000000FF02C00AD001C02ED0089500915407F1
:101C10000395009354073160089571DA00915507D8
:101C2000013069F0E5D801434F4E444954494F4EC5
:101C30005320576F726B7320502D00000BC0D8D803
:101C400001434F4E444954494F4E532049646C65FB
:101C500020502D00009126050F5C0E9414030E9465
:101C6000DF0296D508954BDA00915507013069F0EF
:101C7000BFD801434F4E444954494F4E5320576FEC
:101C8000726B7320502D00000BC0B2D801434F4E31
:101C9000444954494F4E532049646C6520502D00EF
:101CA000009126050F5C0E9414030E94DF02009140
:101CB00051070395019500934F07D6DC10F40E945D
:101CC000DF02D2DC10F40E94DF02CEDCE0F400E29E
:101CD0000E94140315E611BD13E012BDF89A00B579
:101CE0000093560716E611BD13E012BDF89A00B531
:101CF0000093570717E611BD13E012BDF89A00B51F
:101D0000009358075DD1B0DCC0F500E20E941403D7
:101D100015E611BD13E012BDF89A00B50093560701
:101D200016E611BD13E012BDF89A00B500935707EF
:101D300017E611BD13E012BDF89A00B500935807DD
:101D4000ABD10F93013011F453D803000F91003041
:101D500031F04ED82D576F726B73200005C048D8F4
:101D60002D49646C6520000043D850524F475241C2
:101D70004D2D310100000E94DF0276DC10F40E943C
:101D8000DF0272DCE0F400E20E94140318E611BDE9
:101D900013E012BDF89A00B50093560719E611BD7D
:101DA00013E012BDF89A00B5009357071AE611BD6B
:101DB00013E012BDF89A00B50093580701D154DC26
:101DC00008F058C000E20E94140315E611BD13E0AC
:101DD00012BDF89A00B50093560716E611BD13E040
:101DE00012BDF89A00B50093570717E611BD13E02E
:101DF00012BDF89A00B5009358074ED1013009F48E
:101E00003FC118E611BD13E012BDF89A00B500936A
:101E1000560719E611BD13E012BDF89A00B50093FC
:101E200057071AE611BD13E012BDF89A00B50093EA
:101E3000580732D10F93013019F40E94F8060300BD
:101E40000F91003039F00E94F8062D576F726B73B6
:101E5000200006C00E94F8062D49646C6520000031
:101E60000E94F80650524F4752414D2D320100005A
:101E70000E94DF02F9DB10F40E94DF02F5DBE0F4E0
:101E800000E20E9414031BE611BD13E012BDF89A94
:101E900000B5009356071CE611BD13E012BDF89A79
:101EA00000B5009357071DE611BD13E012BDF89A67
:101EB00000B50093580784D0D7DB08F074C000E267
:101EC0000E94140315E611BD13E012BDF89A00B587
:101ED0000093560716E611BD13E012BDF89A00B53F
:101EE0000093570717E611BD13E012BDF89A00B52D
:101EF00000935807D1D0013009F4F5C018E611BDA0
:101F000013E012BDF89A00B50093560719E611BD0B
:101F100013E012BDF89A00B5009357071AE611BDF9
:101F200013E012BDF89A00B500935807B5D0013000
:101F300009F4D9C01BE611BD13E012BDF89A00B533
:101F4000009356071CE611BD13E012BDF89A00B5C8
:101F5000009357071DE611BD13E012BDF89A00B5B6
:101F60000093580799D00F93013019F40E94F80696
:101F700003000F91003039F00E94F8062D576F7260
:101F80006B73200006C00E94F8062D49646C652022
:101F900000000E94F80650524F4752414D2D330128
:101FA00000000E94DF0260DB10F40E94DF025CDBB5
:101FB00010F40E94DF0258DB10F40E94DF02089543
:101FC00000915607003049F40E94F806416C776191
:101FD000797301000E94DF020895009156070530D1
:101FE00048F00E94F8064E657665720100000E9476
:101FF000DF0208950E94F806496E2D0000915607F1
:10200000005D0E9414030E94F80601203D2000009C
:10201000EF93FF93EAE5F7E0009156070A95E00F8A
:1020200010E0F11FEF93FF93E081F0E00E941607AC
:10203000FF91EF91FF91EF910E94F8060120280097
:10204000EF93FF93E0915807F0E00E941607FF918D
:10205000EF910E94F806012D0000EF93FF93E091AD
:102060005707F0E00E941607FF91EF910E94F806D3
:1020700001000E94F806012900000E94DF02089575
:102080000E94F806012D49646C652050524F47525A
:10209000414D2D320000ECCE00915607003009F181
:1020A000009156070530D8F4EF93FF93EAE5F7E087
:1020B000009156070A95E00F10E0F11F1081FF9183
:1020C000EF9100915807011761F00091580701172F
:1020D00030F400915707011710F001E0089500E077
:1020E000089501E008950E94F806012D49646C6589
:1020F0002050524F4752414D2D33000052CF009196
:102100000A01013059F000915107073028F400917D
:1021100051070395009351073160089500915107CD
:10212000013028F0009151070A9500935107316062
:1021300008950E947F080E94F806454449542043B0
:102140004F4E444954494F4E530100000E94DF0254
:10215000009151070395019500934F0785DA10F41C
:102160000E94DF0281DA10F40E94DF027DDAF8F4C7
:10217000012F0E94140315E611BD13E012BDF89A59
:1021800000B50093560716E611BD13E012BDF89A8C
:1021900000B50093570717E611BD13E012BDF89A7A
:1021A00000B5009358070FEF009352079FD05CDAF9
:1021B00078F400E20E9414030E94F80652756E2023
:1021C00050524F4752414D2D310100000E94DF0215
:1021D0004BDA10F40E94DF0247DAF8F4012F0E9474
:1021E000140318E611BD13E012BDF89A00B5009370
:1021F000560719E611BD13E012BDF89A00B5009319
:1022000057071AE611BD13E012BDF89A00B5009306
:1022100058070FEF0093520769D026DA78F400E2EE
:102220000E9414030E94F80652756E2050524F47C8
:1022300052414D2D320100000E94DF0215DA10F4E8
:102240000E94DF0211DAF8F4012F0E9414031BE64A
:1022500011BD13E012BDF89A00B5009356071CE6B5
:1022600011BD13E012BDF89A00B5009357071DE6A3
:1022700011BD13E012BDF89A00B5009358070FEF97
:102280000093520733D0F0D978F400E20E9414038F
:102290000E94F80652756E2050524F4752414D2D04
:1022A000330100000E94DF02DFD910F40E94DF0238
:1022B000DBD910F40E94DF02D7D910F40E94DF02AC
:1022C000089500915107003041F00091510703300B
:1022D00021F000915107063041F4AAD100E00093AB
:1022E00052070BE0009328053160089500912A05FC
:1022F000003039F400915207003019F40E94F806BA
:10230000030000915607003049F40E94F806416C22
:102310007761797301000E94DF02089500915607EA
:10232000053048F00E94F8064E657665720100009F
:102330000E94DF0208950E94F8060149462000002D
:1023400000912A05003039F400915207003019F449
:102350000E94F80603000E94F806496E2D000091C5
:102360005607005D0E9414030E94F80601203D20DC
:10237000000000912A05003039F400915207013025
:1023800019F40E94F8060300EF93FF93E0915807B9
:10239000F0E00E941607FF91EF910E94F806012DD0
:1023A000000000912A05003039F4009152070230F4
:1023B00019F40E94F8060300EF93FF93E09157078A
:1023C000F0E00E941607FF91EF910E94F8060100CD
:1023D0000E94DF02089500910A010130E1F10091AD
:1023E0005207003061F40091560703950093560799
:1023F00000915607053018F005E00093560700914C
:1024000052070130B1F40091580703950093580723
:1024100000915807023318F002E300935807009127
:10242000570710915807011720F40091580700939F
:10243000570700915207023061F400915707039546
:102440000093570700915707023318F002E30093F7
:1024500057073160089500915207003081F40091D0
:102460005607013028F0009156070A950093560749
:1024700005E010915607011710F4009356070091DC
:102480005207013081F400915807013028F0009183
:1024900058070A950093580702E31091580701174F
:1024A00010F400935807009152070230D1F40091C4
:1024B0005707013028F0009157070A9500935707F6
:1024C00002E310915707011710F40093570700918A
:1024D000570710915807011720F4009157070093F0
:1024E0005807316008950E947F080E94F80645440D
:1024F0004954204C494E450100000E94DF0200E093
:1025000014E00E94EC0200912A05003029F40E9498
:10251000F8066F01000004C00E94F8062E010000BA
:10252000E5DE089500915607003069F000915607E6
:10253000053048F40091520703950093520700912B
:102540005207033028F006D009E0009328053160D7
:102550003160089500915107003011F50091560740
:1025600015E611BD13E012BD00BDFA9AF99AF9996A
:10257000FECF0091570716E611BD13E012BD00BD56
:10258000FA9AF99AF999FECF0091580717E611BD0A
:1025900013E012BD00BDFA9AF99AF999FECF089599
:1025A00000915107033011F50091560718E611BD4F
:1025B00013E012BD00BDFA9AF99AF999FECF009185
:1025C000570719E611BD13E012BD00BDFA9AF99A3A
:1025D000F999FECF009158071AE611BD13E012BD1C
:1025E00000BDFA9AF99AF999FECF0895009156071D
:1025F0001BE611BD13E012BD00BDFA9AF99AF999D4
:10260000FECF009157071CE611BD13E012BD00BDBF
:10261000FA9AF99AF999FECF009158071DE611BD73
:1026200013E012BD00BDFA9AF99AF999FECF089508
:10263000009151070030C9F415E611BD13E012BD39
:10264000F89A00B50093560716E611BD13E012BDC7
:10265000F89A00B50093570717E611BD13E012BDB5
:10266000F89A00B500935807089500915107033078
:10267000C9F418E611BD13E012BDF89A00B5009335
:10268000560719E611BD13E012BDF89A00B5009384
:1026900057071AE611BD13E012BDF89A00B5009372
:1026A000580708951BE611BD13E012BDF89A00B556
:1026B000009356071CE611BD13E012BDF89A00B551
:1026C000009357071DE611BD13E012BDF89A00B53F
:1026D0000093580708950E947F080E94F8060100A1
:1026E0000E94F80650524F4752414D2D0000009174
:1026F00026050F5C0E94140300915507003039F045
:102700000E94F806205061757365000006C00E94A3
:10271000F80620576F726B7300000E94DF0238D0FA
:1027200008950E94700B00914807003029F0009135
:1027300048070A950093480700910A01013069F0A3
:102740000091500710914807011728F40091500795
:1027500003950093500731600895009150070130B0
:1027600028F0009150070A950093500731600895B2
:1027700000915507003031F401E0009355073860AF
:102780003160089573D800E00093550731600895D3
:10279000CF93DF93C8E3D5E00FEF00934F0700938B
:1027A000490700914F07039500934F070091490790
:1027B000039500934907609600914F070630E0F5B6
:1027C00008810F3FC9F108810130A9F7009149073D
:1027D0000E5F10915007011B063040F700914F0724
:1027E00010915007010F023040F40E94DF02009167
:1027F0004F07039500934F07F1CF0E94F806200082
:102800000E94FE090E94360A0E946B0A0E94F80686
:102810003A000E94410A0E94F806200009810981BD
:10282000003039F00E94930A0E94F8063A000E9494
:102830007F0A0E94DF02B5CF00914F07063040F4B7
:102840000E94DF0200914F07039500934F07F4CFDA
:10285000DF91CF9108950E947F080E94F8064D45B0
:102860004E5501000E94DF0200914A070395019531
:1028700000934F070E94340B10F40E94DF020E9465
:10288000340B10F40E94DF020E94340B88F4012FF5
:102890000E9414030E94F80650524F4752414D2D9A
:1028A0000100009126050F5C0E9414030E94DF02C4
:1028B0000E94340B50F4012F0E9414030E94F8066A
:1028C0002052756E01000E94DF020E94340B58F402
:1028D000012F0E9414030E94F806204564697401C8
:1028E00000000E94DF020E94340B58F4012F0E9466
:1028F00014030E94F80620436C65617201000E9477
:10290000DF020E94340B78F4012F0E9414030E940E
:10291000F8064D616E75616C20636F6E74726F6C3A
:1029200001000E94DF020E94340B10F40E94DF02BB
:102930000E94340B58F40E94F80620434F4E44493D
:1029400054494F4E530100000E94DF020E94340B95
:1029500050F4012F0E9414030E94F8062052756E55
:1029600001000E94DF020E94340B58F4012F0E94E4
:1029700014030E94F80620456469740100000E9457
:10298000DF020E94340B58F4012F0E9414030E94AE
:10299000F80620436C65617201000E94DF020E940C
:1029A000340B60F4012F0E9414030E94F806205398
:1029B00074617475730100000E94DF020E94340B81
:1029C00010F40E94DF020E94340B90F5012F0E9448
:1029D00014030E94F806414654455220524553457F
:1029E000543A2001000000912705003011F000004A
:1029F00006C00E94F80650726F6772616D00009108
:102A00002705013011F0000006C00E94F806436F50
:102A10006E6469742E00009127050F3F11F00000CD
:102A200005C00E94F8064D656E7500000E94DF0229
:102A30000E94340B10F40E94DF020E94340B10F449
:102A40000E94DF020E94340B10F40E94DF020895FE
:102A500000910A01013059F000914A070C3028F426
:102A600000914A07039500934A0731600895009149
:102A70004A07013028F000914A070A9500934A0757
:102A80003160089500914A07003001F50091260554
:102A90000395033008F000E00093260514E011BD13
:102AA00010E012BD00BDFA9AF99AF999FECF0E9482
:102AB00039080E948B08202A206E65772070726F7B
:102AC0006772616D2073657400000895013059F4D8
:102AD0000E94390800E00093550703E000932805A1
:102AE000316038600895023041F40E94390801E0F5
:102AF000009328053160386008950330E9F4CF93DE
:102B0000DF93C8E4D5E00E94DE0B0FEF088BDF9166
:102B1000CF9100E000934E0700934B070E94F50A07
:102B20000E948B08202A2070726F6772616D20638B
:102B30006C65617265640000043029F402E0009362
:102B4000280531600895073041F400E000935407F0
:102B500008E00093280531600895083029F409E061
:102B60000093280531600895093079F432D00E942D
:102B70008B08202A20636F6E646974696F6E7320FE
:102B8000636C65617265640008950A3029F407E09A
:102B900000932805316008950C30D1F41FEF0091A7
:102BA0002705003009F411E0009127050F3F09F4D3
:102BB00010E0109327050091270513E011BD10E0E8
:102BC00012BD00BDFA9AF99AF999FECF31600895C5
:102BD00008950FEF15E611BD13E012BD00BDFA9A7E
:102BE000F99AF999FECF04E117E611BD13E012BD81
:102BF00000BDFA9AF99AF999FECF04E116E611BDE3
:102C000013E012BD00BDFA9AF99AF999FECF0FEFC1
:102C100018E611BD13E012BD00BDFA9AF99AF999B0
:102C2000FECF04E11AE611BD13E012BD00BDFA9A11
:102C3000F99AF999FECF04E119E611BD13E012BD2E
:102C400000BDFA9AF99AF999FECF0FEF1BE611BD74
:102C500013E012BD00BDFA9AF99AF999FECF04E18A
:102C60001DE611BD13E012BD00BDFA9AF99AF9995B
:102C7000FECF04E11CE611BD13E012BD00BDFA9ABF
:102C8000F99AF999FECF0895CF93DF930E947F08B8
:102C90000E94F806454449542050524F4752414D36
:102CA0002D010000009126050F5C0E9414030E9474
:102CB000DF02C8E3D5E00FEF00934F070093490709
:102CC00000914F07039500934F0700914907039523
:102CD00000934907609600914F07063008F054C0F2
:102CE00008810F3F09F450C00881013099F7009125
:102CF00049070E5F10914B07011B063030F700911A
:102D00004F0710914B07010F023040F40E94DF0281
:102D100000914F07039500934F07F1CF00912805CD
:102D2000063661F000914F07023021F00E94F8064C
:102D3000200003C00E94F8063E000BC000914F0720
:102D4000023021F00E94F806200003C00E94F8061D
:102D50003D000E94FE090E94360A0E946B0A0E94F2
:102D6000F8063A000E94410A0E94F80620000981F4
:102D7000003039F00E94930A0E94F8063A000E943F
:102D80007F0A0E94DF029CCF00914F07063040F47B
:102D90000E94DF0200914F07039500934F07F4CF85
:102DA000DF91CF9108950E94700B00914807003089
:102DB00029F0009148070A950093480700910A01FD
:102DC000013069F000914B0710914807011728F472
:102DD00000914B07039500934B07316008950091D4
:102DE0004B07013028F000914B070A9500934B07E1
:102DF0003160089500E000934C070AE00093280535
:102E0000316008950E947F080E94F80653454C45A2
:102E1000435420414354494F4E0100000E94DF02B9
:102E200000E014E00E94EC0200914C07003061F4D5
:102E30000E94F80620202020202045646974202E5E
:102E40002E2E2E01000037C0013061F40E94F806DA
:102E500020202020202E2044656C20202E2E2E01A4
:102E6000000029C0023061F40E94F80620202020D2
:102E7000202E2E204D6F7665202E2E0100001BC0C7
:102E8000033061F40E94F80620202020202E2E2EF0
:102E90002041646420202E0100000DC0043059F44C
:102EA0000E94F80620202020202E2E2E2E20426167
:102EB000636B010000C00E94DF02089500910A01C7
:102EC000013059F000914C07043028F400914C0770
:102ED000039500934C073160089500914C07013031
:102EE00028F000914C070A9500934C073160089533
:102EF000CF93DF930E94870B00914C07003041F481
:102F000000E000934D0704E600932805316053C0AC
:102F10000130B9F40E949F0B00914807023060F025
:102F200008890F3F29F400914B070A9500934B073E
:102F300000E008830E94C70B01E000932805316080
:102F40003AC0023029F406E600932805316033C008
:102F5000033051F50E94B30B00914807003099F0FF
:102F60000E94EF0B0E94DE0B00914B07039500932C
:102F70004B0701E00093280531600AE00093180533
:102F800000931C0518C00E948B08202A206E6F74C5
:102F9000206164646564202D2066756C6C0001E01E
:102FA00000932805316007C0043029F401E0009344
:102FB0002805316000C0DF91CF910895CF93DF9352
:102FC0000E94870B0E947F080E94F80645444954DE
:102FD000204C494E450100000E94DF0200E014E051
:102FE0000E94EC0200912A05003029F40E94F806A4
:102FF0006F01000004C00E94F8062E01000000913D
:103000002A05003039F400914D07003019F40E9470
:10301000F80603000E94FE0900912A05003039F4E9
:1030200000914D07013019F40E94F80603000E9438
:10303000360A00912A05003039F400914D0702301C
:1030400019F40E94F80603000E946B0A0E94F80619
:10305000013A000000912A05003039F400914D0733
:10306000033019F40E94F80603000E94410A0E94EE
:10307000F8060120000009810030F1F000912A05D6
:10308000003039F400914D07043019F40E94F8061D
:1030900003000E94930A0E94F806013A0000009182
:1030A0002A05003039F400914D07053019F40E94CB
:1030B000F80603000E947F0A0E94F80601000E94A1
:1030C000DF02DF91CF910895CF93DF930E94870BAA
:1030D00000914D07003071F500910A010130B1F007
:1030E0000981003081F00F701981107F039508303D
:1030F00038F0103718F400E0105F02C007E010E766
:10310000012B098387C000E1098384C00981003154
:1031100071F0003009F47EC00F701981107F0A959C
:10312000093010F007E01051012B098373C000E053
:10313000098370C0013051F400910A01013019F087
:1031400001E00A8302C000E00A8364C00230E1F4B7
:1031500000910A01013061F00C8103360D810040BD
:1031600030F40C810F5F0C830D810F4F0D8352C023
:103170000C8100300D81004031F00C8101500C8336
:103180000D8100400D8346C0033091F400910A0187
:10319000013039F00B810B3318F40B8103950B834D
:1031A00039C00B81003019F00B810A950B8332C0B6
:1031B0000430E1F400910A01013061F00F8103361F
:1031C0000885004030F40F810F5F0F8308850F4F93
:1031D000088720C00F8100300885004031F00F8142
:1031E00001500F8308850040088714C0053091F412
:1031F00000910A01013039F00E810B3318F40E8171
:1032000003950E8307C00E81003019F00E810A95D8
:103210000E8300C03160DF91CF910895CF93DF938B
:103220000E94870B00914D07039500934D0709817C
:10323000003049F400914D07043020F001E0009384
:103240002805316008C000914D07063020F001E0EC
:103250000093280531603160DF91CF910895CF93BD
:10326000DF930E94870B0E947F080E94F8064D4F53
:103270005645204C494E450100000E94DF0219CD01
:10328000CF93DF930E94870B00910A01013019F060
:103290000E941C0C02C00E94030C3160DF91CF9190
:1032A000089501E00093280531600895CF93DF93DE
:1032B0000E947F080E94F8064D414E55414C204324
:1032C0004F4E54524F4C01000E94DF02C8E3D5E03C
:1032D0000FEF00934F070093490700914F070395A5
:1032E00000934F07009149070395009349076096A3
:1032F00000914F07063080F508810F3F69F1088182
:103300000130A9F70981003091F3009149070E5F60
:1033100010914E07011B063028F700914F071091BE
:103320004E07010F023040F40E94DF0200914F0768
:10333000039500934F07F1CF00914F07023021F022
:103340000E94F806200003C00E94F8063E000E947A
:10335000FE090E94DF02C1CF00914F07063040F402
:103360000E94DF0200914F07039500934F07F4CFAF
:10337000DF91CF910895CF93DF930E947F080E9441
:10338000F8064D414E55414C20434F4E54524F4C40
:1033900001000E94DF0200E010915907169508F421
:1033A000085F1030D9F70FEF00934F0700934907DC
:1033B00000914F07039500934F070091490703952C
:1033C00000934907009149070E5F10914E07011BBA
:1033D000063098F700914F0710914E07010F023009
:1033E00040F40E94DF0200914F07039500934F07BE
:1033F000F1CF00914F07023021F00E94F806200023
:1034000003C00E94F8063E000E94FE090E94DF02EF
:10341000CFCF00914F07063040F40E94DF020091A9
:103420004F07039500934F07F4CFDF91CF91089595
:103430000E943F0B00914807003029F00091480797
:103440000A950093480700910A01013069F0009144
:103450004E0710914807011728F400914E07039575
:1034600000934E073160089500914E07013028F017
:1034700000914E070A9500934E0731600895CF934F
:10348000DF93C8E3D5E00FEF0093490700914907A8
:10349000039500934907609608810F3FB1F00881BA
:1034A0000130C9F709810030B1F30091490710914B
:1034B0004E07011759F70985003019F000E0098718
:1034C00002C00FEF098700E80A873160DF91CF91D2
:1034D00008950E943F0B00914807003029F00091A9
:1034E00048070A950093480700910A01013069F0E6
:1034F00000914E0710914807011728F400914E07DC
:10350000039500934E073160089500914E070130F6
:1035100028F000914E070A9500934E0731600895F8
:10352000CF93DF93C8E3D5E00FEF009349070091F5
:103530004907039500934907609608810F3FB1F052
:1035400008810130C9F709810030B1F300914907C2
:1035500010914E07011759F70985003019F000E066
:10356000098702C00FEF098700E80A873160DF9101
:10357000CF91089507E0009349073D7F0E944F02D5
:1035800000914907000F006431FD04C00093BB00A7
:103590000E945F02483129F40091590701600093AD
:1035A000590731FD05C000E80093BB000E945F028F
:1035B0000E94710231FDE1CF00915907000F009385
:1035C000590700914907015000934907B1F6089542
:1035D0000FEF0DBF08E00EBF00916000086100937F
:1035E00060000EE000936000A89503E610E00E94E2
:1035F0003400E0E0F1E000E00193E03019E0F10791
:10360000D9F7EEE1F0E0EA950083E9F733270E946D
:1036100055000E94A5000E94DD000E9439010E9411
:103620001E020E9440020E9433050E94BD0A0E94B1
:10363000D60C789404E6009315050093190502E36F
:103640000093170500931B05386000912805023090
:1036500001F432FF05C00E94630D0E94470C3B7FBE
:1036600030FF0EC00E94B0080FE811E0015010407A
:10367000E9F70000000000003E7F3D7F0E948F09B7
:10368000A89533FF03C00E94DA08377FDECFFFCF53
:00000001FF
