:10000000E2C2189518951895189506C21895189576
:100010001895189518951895189518951895189578
:100020004DC0189518951895189518951895189508
:100030004CC218950F931F930BEC17E00150104022
:10004000E9F7000000001F910F910F931F930CEC34
:1000500017E001501040E9F70000000000001F9178
:100060000F910150104089F7000008952F9384D01C
:1000700091D12F910895219A239A259A399A229AFB
:10008000249A389A3A9A03E004BD0AE005BD07E2D3
:1000900007BD01E000936E0000916E0001600093C7
:1000A0006E000895EF93FF9300E018E0E0E0F1E0C8
:1000B00001931A95E9F7FF91EF9108950F931F931C
:1000C0000FB70F93109108011395109308011F3F6C
:1000D000E9F100910001101708F0299808F4299A15
:1000E00000910101101708F02B9808F42B9A009149
:1000F0000201101708F02D9808F42D9A00910301C1
:10010000101708F0419808F4419A00910401101763
:1001100008F02A9808F42A9A00910501101708F0AF
:100120002C9808F42C9A00910601101708F04098BA
:1001300008F4409A00910701101708F0429808F45B
:10014000429A0F910FBF1F910F9118958FDFF9CF32
:1001500000910B01000F2BF00DF0039500930B01A4
:100160000895DDF3FBCF289A5F9A5E9A5D9A2F9AE5
:100170002E9A5C9A5B9A089500910C01189911C00F
:100180000430B9F0039500930C01043091F482D14E
:10019000173031F00091000100950093000151608B
:1001A00008C0003031F0043001F400E000930C018D
:1001B00000C000910D014F9911C00430B9F00395B2
:1001C00000930D01043091F465D1173031F00091A6
:1001D0000101009500930101526008C0003031F028
:1001E000043001F400E000930D0100C000910E0105
:1001F0004E9911C00430B9F0039500930E010430FC
:1002000091F448D1173031F000910201009500932C
:100210000201546008C0003031F0043001F400E005
:1002200000930E0100C000910F014D9911C00430E0
:10023000B9F0039500930F01043091F42BD11730DE
:1002400031F000910301009500930301586008C04C
:10025000003031F0043001F400E000930F0100C0E1
:10026000009110011F9911C00430B9F0039500935B
:100270001001043091F40ED1173031F000910401D7
:10028000009500930401506108C0003031F0043043
:1002900001F400E00093100100C0009111011E99CB
:1002A00011C00430B9F0039500931101043091F4AA
:1002B000F1D0173031F00091050100950093050150
:1002C000506208C0003031F0043001F400E00093C7
:1002D000110100C0009112014C9911C00430B9F015
:1002E000039500931201043091F4D4D0173031F00B
:1002F00000910601009500930601506408C000308B
:1003000031F0043001F400E00093120100C00091CC
:1003100013014B9911C00430B9F0039500931301F8
:10032000043091F4B7D0173031F0009107010095F7
:1003300000930701506808C0003031F0043001F428
:1003400000E00093130100C00895089573D0A2D077
:10035000173089F400E0009300010093010100933D
:10036000020100930301009304010093050100932F
:1003700006010093070108950895EF93FF93E5E1C7
:10038000F1E021E000E001932A95E9F7FF91EF9178
:100390000895089500911501015020F00093150172
:1003A00009F4D4DF08955A9A599A589A04E00093B0
:1003B000680007E000936D00089507FD12C003FB7D
:1003C0000770AF93BF93A0E0B1E0A00F10E0B11FA2
:1003D0001EF000E00C9302C00FEF0C93BF91AF91A1
:1003E0000895003809F40895013891F400E000936D
:1003F00000010093010100930201009303010093A7
:10040000040100930501009306010093070108957C
:10041000023809F4089508950F931F930FB70F93AF
:100420000EE100931501009316010F910FBF1F916C
:100430000F9118951FEB09B102FB11F909B101FBEE
:1004400012F909B100FB13F91095103409F410E00A
:100450001093BA0008950F931FEF09B102FB14F92E
:1004600009B101FB15F909B100FB16F910950F91BF
:10047000102B1F93AF93BF93A0E0B1E0A00F10E04B
:10048000B11F0C91BF91AF911F91003009F018601E
:10049000012F089510E009B102FB10F909B101FB29
:1004A00011F909B100FB12F9089550D030FD04C0D4
:1004B00000E40093BB005AD030FD03C06093BB0042
:1004C00055D066D030FDF1CF08950F931F930FB72D
:1004D0000F934091B900487F403621F405E800931E
:1004E000BC0020C0483839F40091BB0066DF05EC41
:1004F0000093BC0017C0403A29F405EC0093BC00FF
:10050000316010C0403029F405ED0093BC0031602B
:1005100009C0483321F405EC0093BC00316004E0CD
:100520000093BC000F910FBF1F910F911895459A32
:10053000449A00E00093B9000CE00093B80002E494
:100540000093BA0005E40093BC00089530FD0895BF
:10055000F89448EF05EE0093BC00789430FD05C098
:10056000483019F0403109F0F9CF0895F89448EF78
:1005700005EC0093BC00789430FD09C0483139F097
:10058000403229F0483219F0403309F0F5CF089590
:1005900030FD0895F89448EF05ED0093BC00789481
:1005A000000000000000000000000000000000004B
:1005B0000000000007EC10E001501040E9F70000D7
:1005C0000000000008950FEF0DBF02E00EBF009184
:1005D00060000861009360000EE000936000A89541
:1005E00003E610E027DDE0E0F1E000E00193E03019
:1005F00013E0F107D9F7EEE1F0E0EA950083E9F7BF
:10060000332739DDB0DDC5DECEDE91DF78940EE133
:10061000009315010093160107EE13E001501040FE
:10062000E9F700000000000000E0009300010093E3
:100630000101009302010093030100930401009360
:100640000501009306010093070150FF05C000E07B
:1006500002DF602F2ADF5E7F000051FF05C001E04E
:10066000FADE602F22DF5D7F000052FF05C002E04E
:10067000F2DE602F1ADF5B7F000053FF05C003E04E
:10068000EADE602F12DF577F000054FF05C004E050
:10069000E2DE602F0ADF5F7E000055FF05C005E047
:1006A000DADE602F02DF5F7D000056FF05C006E046
:1006B000D2DE602FFADE5F7B000057FF05C007E047
:1006C000CADE602FF2DE5F770000A895BECFFFCFB5
:00000001FF
